{
  "contractName": "Market",
  "abi": [
    {
      "inputs": [],
      "payable": false,
      "stateMutability": "nonpayable",
      "type": "constructor"
    },
    {
      "anonymous": false,
      "inputs": [
        {
          "indexed": false,
          "internalType": "address",
          "name": "_user",
          "type": "address"
        }
      ],
      "name": "AdminAdded",
      "type": "event"
    },
    {
      "anonymous": false,
      "inputs": [
        {
          "indexed": false,
          "internalType": "address",
          "name": "_user",
          "type": "address"
        }
      ],
      "name": "AdminRemoved",
      "type": "event"
    },
    {
      "anonymous": false,
      "inputs": [
        {
          "indexed": false,
          "internalType": "uint256",
          "name": "_sku",
          "type": "uint256"
        },
        {
          "indexed": false,
          "internalType": "uint256",
          "name": "_storeID",
          "type": "uint256"
        },
        {
          "indexed": false,
          "internalType": "string",
          "name": "_name",
          "type": "string"
        },
        {
          "indexed": false,
          "internalType": "uint256",
          "name": "_quantity",
          "type": "uint256"
        }
      ],
      "name": "ForSale",
      "type": "event"
    },
    {
      "anonymous": false,
      "inputs": [
        {
          "indexed": false,
          "internalType": "uint256",
          "name": "_storeID",
          "type": "uint256"
        },
        {
          "indexed": false,
          "internalType": "uint256",
          "name": "_sku",
          "type": "uint256"
        }
      ],
      "name": "ItemDeleted",
      "type": "event"
    },
    {
      "anonymous": false,
      "inputs": [
        {
          "indexed": false,
          "internalType": "uint256",
          "name": "_sku",
          "type": "uint256"
        },
        {
          "indexed": false,
          "internalType": "uint256",
          "name": "_storeID",
          "type": "uint256"
        },
        {
          "indexed": false,
          "internalType": "uint256",
          "name": "_quantity",
          "type": "uint256"
        }
      ],
      "name": "Sold",
      "type": "event"
    },
    {
      "anonymous": false,
      "inputs": [
        {
          "indexed": false,
          "internalType": "address",
          "name": "_owner",
          "type": "address"
        },
        {
          "indexed": false,
          "internalType": "string",
          "name": "_name",
          "type": "string"
        },
        {
          "indexed": false,
          "internalType": "uint256",
          "name": "_skuCount",
          "type": "uint256"
        }
      ],
      "name": "StoreAdded",
      "type": "event"
    },
    {
      "anonymous": false,
      "inputs": [
        {
          "indexed": false,
          "internalType": "uint256",
          "name": "_storeID",
          "type": "uint256"
        },
        {
          "indexed": false,
          "internalType": "uint256",
          "name": "balanceToWithdraw",
          "type": "uint256"
        }
      ],
      "name": "StoreBalanceWithdrawn",
      "type": "event"
    },
    {
      "anonymous": false,
      "inputs": [
        {
          "indexed": false,
          "internalType": "address",
          "name": "_user",
          "type": "address"
        }
      ],
      "name": "StoreRemoved",
      "type": "event"
    },
    {
      "payable": false,
      "stateMutability": "nonpayable",
      "type": "fallback"
    },
    {
      "constant": false,
      "inputs": [],
      "name": "emergencyStop",
      "outputs": [],
      "payable": false,
      "stateMutability": "nonpayable",
      "type": "function"
    },
    {
      "constant": true,
      "inputs": [
        {
          "internalType": "address",
          "name": "",
          "type": "address"
        }
      ],
      "name": "isAdmin",
      "outputs": [
        {
          "internalType": "bool",
          "name": "",
          "type": "bool"
        }
      ],
      "payable": false,
      "stateMutability": "view",
      "type": "function"
    },
    {
      "constant": true,
      "inputs": [
        {
          "internalType": "address",
          "name": "",
          "type": "address"
        }
      ],
      "name": "people",
      "outputs": [
        {
          "internalType": "string",
          "name": "name",
          "type": "string"
        }
      ],
      "payable": false,
      "stateMutability": "view",
      "type": "function"
    },
    {
      "constant": false,
      "inputs": [],
      "name": "release",
      "outputs": [],
      "payable": false,
      "stateMutability": "nonpayable",
      "type": "function"
    },
    {
      "constant": true,
      "inputs": [],
      "name": "stopped",
      "outputs": [
        {
          "internalType": "bool",
          "name": "",
          "type": "bool"
        }
      ],
      "payable": false,
      "stateMutability": "view",
      "type": "function"
    },
    {
      "constant": true,
      "inputs": [
        {
          "internalType": "uint256",
          "name": "",
          "type": "uint256"
        }
      ],
      "name": "stores",
      "outputs": [
        {
          "internalType": "address payable",
          "name": "storeOwner",
          "type": "address"
        },
        {
          "internalType": "string",
          "name": "storeName",
          "type": "string"
        },
        {
          "internalType": "uint256",
          "name": "storeSkuCount",
          "type": "uint256"
        },
        {
          "internalType": "uint256",
          "name": "storeBalance",
          "type": "uint256"
        }
      ],
      "payable": false,
      "stateMutability": "view",
      "type": "function"
    },
    {
      "constant": false,
      "inputs": [
        {
          "internalType": "address payable",
          "name": "newOwner",
          "type": "address"
        }
      ],
      "name": "transferOwnership",
      "outputs": [],
      "payable": false,
      "stateMutability": "nonpayable",
      "type": "function"
    },
    {
      "constant": true,
      "inputs": [
        {
          "internalType": "uint256",
          "name": "_storeID",
          "type": "uint256"
        }
      ],
      "name": "getStoreItemCount",
      "outputs": [
        {
          "internalType": "uint256",
          "name": "",
          "type": "uint256"
        }
      ],
      "payable": false,
      "stateMutability": "view",
      "type": "function"
    },
    {
      "constant": true,
      "inputs": [],
      "name": "getStoreCount",
      "outputs": [
        {
          "internalType": "uint256",
          "name": "",
          "type": "uint256"
        }
      ],
      "payable": false,
      "stateMutability": "view",
      "type": "function"
    },
    {
      "constant": true,
      "inputs": [
        {
          "internalType": "uint256",
          "name": "_storeID",
          "type": "uint256"
        },
        {
          "internalType": "uint256",
          "name": "_itemCode",
          "type": "uint256"
        }
      ],
      "name": "getOrderDetails",
      "outputs": [
        {
          "internalType": "uint256",
          "name": "",
          "type": "uint256"
        },
        {
          "internalType": "uint256",
          "name": "",
          "type": "uint256"
        }
      ],
      "payable": false,
      "stateMutability": "view",
      "type": "function"
    },
    {
      "constant": false,
      "inputs": [
        {
          "internalType": "string",
          "name": "_name",
          "type": "string"
        },
        {
          "internalType": "uint256",
          "name": "_price",
          "type": "uint256"
        },
        {
          "internalType": "uint256",
          "name": "_sku",
          "type": "uint256"
        },
        {
          "internalType": "uint256",
          "name": "_storeID",
          "type": "uint256"
        },
        {
          "internalType": "string",
          "name": "_imageHash",
          "type": "string"
        }
      ],
      "name": "addItem",
      "outputs": [],
      "payable": false,
      "stateMutability": "nonpayable",
      "type": "function"
    },
    {
      "constant": false,
      "inputs": [
        {
          "internalType": "uint256",
          "name": "_sku",
          "type": "uint256"
        },
        {
          "internalType": "uint256",
          "name": "_storeID",
          "type": "uint256"
        }
      ],
      "name": "deleteItem",
      "outputs": [],
      "payable": false,
      "stateMutability": "nonpayable",
      "type": "function"
    },
    {
      "constant": false,
      "inputs": [
        {
          "internalType": "uint256",
          "name": "_sku",
          "type": "uint256"
        },
        {
          "internalType": "uint256",
          "name": "_quantity",
          "type": "uint256"
        },
        {
          "internalType": "uint256",
          "name": "_storeID",
          "type": "uint256"
        }
      ],
      "name": "buyItem",
      "outputs": [],
      "payable": true,
      "stateMutability": "payable",
      "type": "function"
    },
    {
      "constant": false,
      "inputs": [
        {
          "internalType": "uint256",
          "name": "_storeID",
          "type": "uint256"
        },
        {
          "internalType": "uint256",
          "name": "amountToWithdraw",
          "type": "uint256"
        }
      ],
      "name": "withdrawStoreBalance",
      "outputs": [],
      "payable": true,
      "stateMutability": "payable",
      "type": "function"
    },
    {
      "constant": true,
      "inputs": [
        {
          "internalType": "uint256",
          "name": "_sku",
          "type": "uint256"
        },
        {
          "internalType": "uint256",
          "name": "_storeID",
          "type": "uint256"
        }
      ],
      "name": "fetchItem",
      "outputs": [
        {
          "internalType": "string",
          "name": "name",
          "type": "string"
        },
        {
          "internalType": "uint256",
          "name": "sku",
          "type": "uint256"
        },
        {
          "internalType": "uint256",
          "name": "price",
          "type": "uint256"
        },
        {
          "internalType": "string",
          "name": "image",
          "type": "string"
        }
      ],
      "payable": false,
      "stateMutability": "view",
      "type": "function"
    },
    {
      "constant": false,
      "inputs": [
        {
          "internalType": "string",
          "name": "_name",
          "type": "string"
        },
        {
          "internalType": "address payable",
          "name": "_storeOwner",
          "type": "address"
        },
        {
          "internalType": "uint256",
          "name": "_storeSkuCount",
          "type": "uint256"
        }
      ],
      "name": "addStore",
      "outputs": [],
      "payable": false,
      "stateMutability": "nonpayable",
      "type": "function"
    },
    {
      "constant": false,
      "inputs": [],
      "name": "freezeMarket",
      "outputs": [],
      "payable": false,
      "stateMutability": "nonpayable",
      "type": "function"
    },
    {
      "constant": false,
      "inputs": [],
      "name": "resumeMarket",
      "outputs": [],
      "payable": false,
      "stateMutability": "nonpayable",
      "type": "function"
    },
    {
      "constant": false,
      "inputs": [],
      "name": "withdrawAll",
      "outputs": [],
      "payable": false,
      "stateMutability": "nonpayable",
      "type": "function"
    },
    {
      "constant": false,
      "inputs": [
        {
          "internalType": "address",
          "name": "_user",
          "type": "address"
        }
      ],
      "name": "addAdmin",
      "outputs": [],
      "payable": false,
      "stateMutability": "nonpayable",
      "type": "function"
    },
    {
      "constant": false,
      "inputs": [
        {
          "internalType": "address",
          "name": "_user",
          "type": "address"
        }
      ],
      "name": "removeAdmin",
      "outputs": [],
      "payable": false,
      "stateMutability": "nonpayable",
      "type": "function"
    },
    {
      "constant": true,
      "inputs": [
        {
          "internalType": "uint256",
          "name": "_storeID",
          "type": "uint256"
        }
      ],
      "name": "getStore",
      "outputs": [
        {
          "internalType": "string",
          "name": "",
          "type": "string"
        },
        {
          "internalType": "address",
          "name": "",
          "type": "address"
        },
        {
          "internalType": "uint256",
          "name": "",
          "type": "uint256"
        }
      ],
      "payable": false,
      "stateMutability": "view",
      "type": "function"
    },
    {
      "constant": true,
      "inputs": [
        {
          "internalType": "uint256",
          "name": "_storeID",
          "type": "uint256"
        }
      ],
      "name": "getStoreBalance",
      "outputs": [
        {
          "internalType": "uint256",
          "name": "",
          "type": "uint256"
        }
      ],
      "payable": false,
      "stateMutability": "view",
      "type": "function"
    }
  ],
  "bytecode": "0x6080604052600060015560006002556000600360006101000a81548160ff02191690831515021790555034801561003557600080fd5b50336000806101000a81548173ffffffffffffffffffffffffffffffffffffffff021916908373ffffffffffffffffffffffffffffffffffffffff1602179055506001600560008060009054906101000a900473ffffffffffffffffffffffffffffffffffffffff1673ffffffffffffffffffffffffffffffffffffffff1673ffffffffffffffffffffffffffffffffffffffff16815260200190815260200160002060006101000a81548160ff02191690831515021790555061241c806100fe6000396000f3fe6080604052600436106101405760003560e01c806383403120116100b6578063c806b2751161006f578063c806b2751461072b578063d5e57da61461077a578063df2e5066146108b2578063e5746a8f146108c9578063e8a59cd814610a46578063f2fde38b14610b3b57610140565b80638340312014610595578063853828b61461068357806386d1a69f1461069a5780638d217ad0146106b15780639319106b146106e957806398e8bd971461070057610140565b806341e355981161010857806341e3559814610378578063618a7e1d1461046a57806363a599a4146104af57806370480275146104c657806375f12b21146105175780637b4103931461054657610140565b806307de9735146101525780631785f53c1461021c5780631f6a83181461026d57806324d7806c146102af5780632c203edd14610318575b34801561014c57600080fd5b50600080fd5b34801561015e57600080fd5b506101a16004803603602081101561017557600080fd5b81019080803573ffffffffffffffffffffffffffffffffffffffff169060200190929190505050610b8c565b6040518080602001828103825283818151815260200191508051906020019080838360005b838110156101e15780820151818401526020810190506101c6565b50505050905090810190601f16801561020e5780820380516001836020036101000a031916815260200191505b509250505060405180910390f35b34801561022857600080fd5b5061026b6004803603602081101561023f57600080fd5b81019080803573ffffffffffffffffffffffffffffffffffffffff169060200190929190505050610c42565b005b6102ad6004803603606081101561028357600080fd5b81019080803590602001909291908035906020019092919080359060200190929190505050610d6b565b005b3480156102bb57600080fd5b506102fe600480360360208110156102d257600080fd5b81019080803573ffffffffffffffffffffffffffffffffffffffff169060200190929190505050610fb9565b604051808215151515815260200191505060405180910390f35b34801561032457600080fd5b5061035b6004803603604081101561033b57600080fd5b810190808035906020019092919080359060200190929190505050610fd9565b604051808381526020018281526020019250505060405180910390f35b34801561038457600080fd5b506104686004803603606081101561039b57600080fd5b81019080803590602001906401000000008111156103b857600080fd5b8201836020820111156103ca57600080fd5b803590602001918460018302840111640100000000831117156103ec57600080fd5b91908080601f016020809104026020016040519081016040528093929190818152602001838380828437600081840152601f19601f820116905080830192505050505050509192919290803573ffffffffffffffffffffffffffffffffffffffff16906020019092919080359060200190929190505050611083565b005b34801561047657600080fd5b506104ad6004803603604081101561048d57600080fd5b810190808035906020019092919080359060200190929190505050611284565b005b3480156104bb57600080fd5b506104c46113a8565b005b3480156104d257600080fd5b50610515600480360360208110156104e957600080fd5b81019080803573ffffffffffffffffffffffffffffffffffffffff16906020019092919050505061141b565b005b34801561052357600080fd5b5061052c611544565b604051808215151515815260200191505060405180910390f35b34801561055257600080fd5b5061057f6004803603602081101561056957600080fd5b8101908080359060200190929190505050611557565b6040518082815260200191505060405180910390f35b3480156105a157600080fd5b506105ce600480360360208110156105b857600080fd5b810190808035906020019092919050505061158b565b60405180806020018473ffffffffffffffffffffffffffffffffffffffff1673ffffffffffffffffffffffffffffffffffffffff168152602001838152602001828103825285818151815260200191508051906020019080838360005b8381101561064657808201518184015260208101905061062b565b50505050905090810190601f1680156106735780820380516001836020036101000a031916815260200191505b5094505050505060405180910390f35b34801561068f57600080fd5b50610698611761565b005b3480156106a657600080fd5b506106af611837565b005b6106e7600480360360408110156106c757600080fd5b8101908080359060200190929190803590602001909291905050506118bf565b005b3480156106f557600080fd5b506106fe611a63565b005b34801561070c57600080fd5b50610715611ad6565b6040518082815260200191505060405180910390f35b34801561073757600080fd5b506107646004803603602081101561074e57600080fd5b8101908080359060200190929190505050611ae0565b6040518082815260200191505060405180910390f35b34801561078657600080fd5b506107bd6004803603604081101561079d57600080fd5b810190808035906020019092919080359060200190929190505050611b00565b604051808060200185815260200184815260200180602001838103835287818151815260200191508051906020019080838360005b8381101561080d5780820151818401526020810190506107f2565b50505050905090810190601f16801561083a5780820380516001836020036101000a031916815260200191505b50838103825284818151815260200191508051906020019080838360005b83811015610873578082015181840152602081019050610858565b50505050905090810190601f1680156108a05780820380516001836020036101000a031916815260200191505b50965050505050505060405180910390f35b3480156108be57600080fd5b506108c7611ce2565b005b3480156108d557600080fd5b50610a44600480360360a08110156108ec57600080fd5b810190808035906020019064010000000081111561090957600080fd5b82018360208201111561091b57600080fd5b8035906020019184600183028401116401000000008311171561093d57600080fd5b91908080601f016020809104026020016040519081016040528093929190818152602001838380828437600081840152601f19601f820116905080830192505050505050509192919290803590602001909291908035906020019092919080359060200190929190803590602001906401000000008111156109be57600080fd5b8201836020820111156109d057600080fd5b803590602001918460018302840111640100000000831117156109f257600080fd5b91908080601f016020809104026020016040519081016040528093929190818152602001838380828437600081840152601f19601f820116905080830192505050505050509192919290505050611d55565b005b348015610a5257600080fd5b50610a7f60048036036020811015610a6957600080fd5b8101908080359060200190929190505050612040565b604051808573ffffffffffffffffffffffffffffffffffffffff1673ffffffffffffffffffffffffffffffffffffffff16815260200180602001848152602001838152602001828103825285818151815260200191508051906020019080838360005b83811015610afd578082015181840152602081019050610ae2565b50505050905090810190601f168015610b2a5780820380516001836020036101000a031916815260200191505b509550505050505060405180910390f35b348015610b4757600080fd5b50610b8a60048036036020811015610b5e57600080fd5b81019080803573ffffffffffffffffffffffffffffffffffffffff169060200190929190505050612128565b005b6006602052806000526040600020600091509050806000018054600181600116156101000203166002900480601f016020809104026020016040519081016040528092919081815260200182805460018160011615610100020316600290048015610c385780601f10610c0d57610100808354040283529160200191610c38565b820191906000526020600020905b815481529060010190602001808311610c1b57829003601f168201915b5050505050905081565b6000809054906101000a900473ffffffffffffffffffffffffffffffffffffffff1673ffffffffffffffffffffffffffffffffffffffff163373ffffffffffffffffffffffffffffffffffffffff161415610d6857600060149054906101000a900460ff16610d67576000600560008373ffffffffffffffffffffffffffffffffffffffff1673ffffffffffffffffffffffffffffffffffffffff16815260200190815260200160002060006101000a81548160ff0219169083151502179055507f44d6d25963f097ad14f29f06854a01f575648a1ef82f30e562ccd3889717e33981604051808273ffffffffffffffffffffffffffffffffffffffff1673ffffffffffffffffffffffffffffffffffffffff16815260200191505060405180910390a15b5b50565b600060149054906101000a900460ff16610fb457610db360046000838152602001908152602001600020600401600085815260200190815260200160002060030154836121f6565b80341015610dc057600080fd5b6000610df660046000858152602001908152602001600020600401600087815260200190815260200160002060030154856121f6565b9050610e2c6004600085815260200190815260200160002060040160008781526020019081526020016000206002015485612230565b60046000858152602001908152602001600020600401600087815260200190815260200160002060020181905550610e7a600460008581526020019081526020016000206003015482612250565b6004600085815260200190815260200160002060030181905550610f02600660003373ffffffffffffffffffffffffffffffffffffffff1673ffffffffffffffffffffffffffffffffffffffff168152602001908152602001600020600101600085815260200190815260200160002060008781526020019081526020016000205485612250565b600660003373ffffffffffffffffffffffffffffffffffffffff1673ffffffffffffffffffffffffffffffffffffffff16815260200190815260200160002060010160008581526020019081526020016000206000878152602001908152602001600020819055507fb94ad6b739f9bef4a950b4e9ce06c0f6f6bcfc31bea46cc96187fb7cd1066cab85848660405180848152602001838152602001828152602001935050505060405180910390a150505b505050565b60056020528060005260406000206000915054906101000a900460ff1681565b6000806000600660003373ffffffffffffffffffffffffffffffffffffffff1673ffffffffffffffffffffffffffffffffffffffff16815260200190815260200160002060010160008681526020019081526020016000206000858152602001908152602001600020549050600060046000878152602001908152602001600020600401600086815260200190815260200160002060030154905081819350935050509250929050565b600060149054906101000a900460ff1661127f576014835111156110f2576040517f08c379a00000000000000000000000000000000000000000000000000000000081526004018080602001828103825260258152602001806123c36025913960400191505060405180910390fd5b82600460006002548152602001908152602001600020600101908051906020019061111e92919061226f565b508160046000600254815260200190815260200160002060000160006101000a81548173ffffffffffffffffffffffffffffffffffffffff021916908373ffffffffffffffffffffffffffffffffffffffff16021790555080600460006002548152602001908152602001600020600201819055506111a06002546001612250565b6002819055507fe92ae8a235222aeb21f92971dd64a849c4ba8949f40711335f43e76f0074d2e2828483604051808473ffffffffffffffffffffffffffffffffffffffff1673ffffffffffffffffffffffffffffffffffffffff16815260200180602001838152602001828103825284818151815260200191508051906020019080838360005b83811015611242578082015181840152602081019050611227565b50505050905090810190601f16801561126f5780820380516001836020036101000a031916815260200191505b5094505050505060405180910390a15b505050565b33816004600082815260200190815260200160002060000160009054906101000a900473ffffffffffffffffffffffffffffffffffffffff1673ffffffffffffffffffffffffffffffffffffffff168273ffffffffffffffffffffffffffffffffffffffff16146112f457600080fd5b600060149054906101000a900460ff166113a2576004600084815260200190815260200160002060040160008581526020019081526020016000206000808201600061134091906122ef565b60018201600061135091906122ef565b6002820160009055600382016000905550507fd2dd399ffb85e7eb11adef9ec4596e2d4f0efd88638581a6b56c14978923d4b38385604051808381526020018281526020019250505060405180910390a15b50505050565b6000809054906101000a900473ffffffffffffffffffffffffffffffffffffffff1673ffffffffffffffffffffffffffffffffffffffff163373ffffffffffffffffffffffffffffffffffffffff161415611419576001600060146101000a81548160ff0219169083151502179055505b565b600060149054906101000a900460ff16611541576000809054906101000a900473ffffffffffffffffffffffffffffffffffffffff1673ffffffffffffffffffffffffffffffffffffffff163373ffffffffffffffffffffffffffffffffffffffff161415611540576001600560008373ffffffffffffffffffffffffffffffffffffffff1673ffffffffffffffffffffffffffffffffffffffff16815260200190815260200160002060006101000a81548160ff0219169083151502179055507f44d6d25963f097ad14f29f06854a01f575648a1ef82f30e562ccd3889717e33981604051808273ffffffffffffffffffffffffffffffffffffffff1673ffffffffffffffffffffffffffffffffffffffff16815260200191505060405180910390a15b5b50565b600360009054906101000a900460ff1681565b60008060149054906101000a900460ff1661158657600460008381526020019081526020016000206003015490505b919050565b606060008083600254811115611609576040517f08c379a00000000000000000000000000000000000000000000000000000000081526004018080602001828103825260188152602001807f496e76616c69642053746f726549442070726f7669646564000000000000000081525060200191505060405180910390fd5b611611612337565b600460008781526020019081526020016000206040518060800160405290816000820160009054906101000a900473ffffffffffffffffffffffffffffffffffffffff1673ffffffffffffffffffffffffffffffffffffffff1673ffffffffffffffffffffffffffffffffffffffff168152602001600182018054600181600116156101000203166002900480601f01602080910402602001604051908101604052809291908181526020018280546001816001161561010002031660029004801561171e5780601f106116f35761010080835404028352916020019161171e565b820191906000526020600020905b81548152906001019060200180831161170157829003601f168201915b5050505050815260200160028201548152602001600382015481525050905080602001518160000151826040015182925081915094509450945050509193909250565b6000809054906101000a900473ffffffffffffffffffffffffffffffffffffffff1673ffffffffffffffffffffffffffffffffffffffff163373ffffffffffffffffffffffffffffffffffffffff16141561183557600060149054906101000a900460ff1615611834576000809054906101000a900473ffffffffffffffffffffffffffffffffffffffff1673ffffffffffffffffffffffffffffffffffffffff166108fc479081150290604051600060405180830381858888f19350505050158015611832573d6000803e3d6000fd5b505b5b565b6000809054906101000a900473ffffffffffffffffffffffffffffffffffffffff1673ffffffffffffffffffffffffffffffffffffffff163373ffffffffffffffffffffffffffffffffffffffff1614156118bd57600060149054906101000a900460ff16156118bc5760008060146101000a81548160ff0219169083151502179055505b5b565b600060149054906101000a900460ff16611a5f5733826004600082815260200190815260200160002060000160009054906101000a900473ffffffffffffffffffffffffffffffffffffffff1673ffffffffffffffffffffffffffffffffffffffff168273ffffffffffffffffffffffffffffffffffffffff161461194357600080fd5b600460008581526020019081526020016000206003015483111561196657600080fd5b6004600085815260200190815260200160002060000160009054906101000a900473ffffffffffffffffffffffffffffffffffffffff1673ffffffffffffffffffffffffffffffffffffffff166108fc849081150290604051600060405180830381858888f193505050501580156119e2573d6000803e3d6000fd5b50611a03600460008681526020019081526020016000206003015484612230565b60046000868152602001908152602001600020600301819055507f6a428efd7d4047ca307658bde77396d9c8e8d69db0f2bdb84b71f888706475388484604051808381526020018281526020019250505060405180910390a150505b5050565b6000809054906101000a900473ffffffffffffffffffffffffffffffffffffffff1673ffffffffffffffffffffffffffffffffffffffff163373ffffffffffffffffffffffffffffffffffffffff161415611ad4576000600360006101000a81548160ff0219169083151502179055505b565b6000600254905090565b600060046000838152602001908152602001600020600201549050919050565b60606000806060600060149054906101000a900460ff16611cd957611b23612375565b600460008781526020019081526020016000206004016000888152602001908152602001600020604051806080016040529081600082018054600181600116156101000203166002900480601f016020809104026020016040519081016040528092919081815260200182805460018160011615610100020316600290048015611bee5780601f10611bc357610100808354040283529160200191611bee565b820191906000526020600020905b815481529060010190602001808311611bd157829003601f168201915b50505050508152602001600182018054600181600116156101000203166002900480601f016020809104026020016040519081016040528092919081815260200182805460018160011615610100020316600290048015611c905780601f10611c6557610100808354040283529160200191611c90565b820191906000526020600020905b815481529060010190602001808311611c7357829003601f168201915b5050505050815260200160028201548152602001600382015481525050905080600001519450806040015193508060600151925080602001519150848484849450945094509450505b92959194509250565b6000809054906101000a900473ffffffffffffffffffffffffffffffffffffffff1673ffffffffffffffffffffffffffffffffffffffff163373ffffffffffffffffffffffffffffffffffffffff161415611d53576001600360006101000a81548160ff0219169083151502179055505b565b33826004600082815260200190815260200160002060000160009054906101000a900473ffffffffffffffffffffffffffffffffffffffff1673ffffffffffffffffffffffffffffffffffffffff168273ffffffffffffffffffffffffffffffffffffffff1614611dc557600080fd5b600060149054906101000a900460ff1661203757601487511115611e51576040517f08c379a000000000000000000000000000000000000000000000000000000000815260040180806020018281038252601f8152602001807f506c65617365206b656570206e616d6520756e6465722032302063686172730081525060200191505060405180910390fd5b611e5e6001546001612250565b600181905550600060046000868152602001908152602001600020600201549050876004600087815260200190815260200160002060040160008381526020019081526020016000206000019080519060200190611ebd92919061226f565b5086600460008781526020019081526020016000206004016000838152602001908152602001600020600301819055508560046000878152602001908152602001600020600401600083815260200190815260200160002060020181905550836004600087815260200190815260200160002060040160008381526020019081526020016000206001019080519060200190611f5a92919061226f565b50611f66816001612250565b60046000878152602001908152602001600020600201819055507e04dadcdf342dce90d0bed1bc9d084fe3476b947f1fa7d0e9214836b8fbc071600154868a896040518085815260200184815260200180602001838152602001828103825284818151815260200191508051906020019080838360005b83811015611ff8578082015181840152602081019050611fdd565b50505050905090810190601f1680156120255780820380516001836020036101000a031916815260200191505b509550505050505060405180910390a1505b50505050505050565b60046020528060005260406000206000915090508060000160009054906101000a900473ffffffffffffffffffffffffffffffffffffffff1690806001018054600181600116156101000203166002900480601f0160208091040260200160405190810160405280929190818152602001828054600181600116156101000203166002900480156121125780601f106120e757610100808354040283529160200191612112565b820191906000526020600020905b8154815290600101906020018083116120f557829003601f168201915b5050505050908060020154908060030154905084565b6000809054906101000a900473ffffffffffffffffffffffffffffffffffffffff1673ffffffffffffffffffffffffffffffffffffffff163373ffffffffffffffffffffffffffffffffffffffff1614156121f357600073ffffffffffffffffffffffffffffffffffffffff168173ffffffffffffffffffffffffffffffffffffffff16146121f257806000806101000a81548173ffffffffffffffffffffffffffffffffffffffff021916908373ffffffffffffffffffffffffffffffffffffffff1602179055505b5b50565b600080831415612209576000905061222a565b600082840290508284828161221a57fe5b041461222557600080fd5b809150505b92915050565b60008282111561223f57600080fd5b600082840390508091505092915050565b60008082840190508381101561226557600080fd5b8091505092915050565b828054600181600116156101000203166002900490600052602060002090601f016020900481019282601f106122b057805160ff19168380011785556122de565b828001600101855582156122de579182015b828111156122dd5782518255916020019190600101906122c2565b5b5090506122eb919061239d565b5090565b50805460018160011615610100020316600290046000825580601f106123155750612334565b601f016020900490600052602060002090810190612333919061239d565b5b50565b6040518060800160405280600073ffffffffffffffffffffffffffffffffffffffff1681526020016060815260200160008152602001600081525090565b6040518060800160405280606081526020016060815260200160008152602001600081525090565b6123bf91905b808211156123bb5760008160009055506001016123a3565b5090565b9056fe506c65617365206b656570206e616d6520756e646572203230206368617261636874657273a265627a7a72315820858e6e81c3a59072f3cb93e8721a7d47acee02762508f9eaba086caa2706967464736f6c63430005100032",
  "source": "pragma solidity ^0.5.0;\n\nimport \"./SafeMath.sol\";\nimport \"./Ownable.sol\";\nimport \"./Stoppable.sol\";\n\n/** @title Market. */\ncontract Market is Ownable, Stoppable {\n  using SafeMath for uint;\n  uint skuCount = 0;\n  uint storeCount = 0;\n  \n  // for circuit breaker\n  bool public stopped = false;\n  \n  // User Structure\n  struct User{\n    string name;\n    mapping(uint => mapping(uint => uint)) orders;\n    // storeID => itemID => quantity\n  }\n\n  /** @dev User Structure defines user.\n  */\n  struct Store {\n    address payable storeOwner;\n    string storeName;\n    uint storeSkuCount;\n    uint storeBalance;\n    mapping (uint=>Item) storeItems;\n  }\n\n  /** @dev Item defines one item.\n  */\n  struct Item {\n    string name;\n    string ipfsImage;\n    uint sku;\n    uint price;\n  }\n\n  mapping(uint => Store) public stores;\n  mapping(address => bool) public isAdmin;\n  mapping(address => User) public people;\n\n  event ForSale(uint _sku, uint _storeID, string _name, uint _quantity);\n  event Sold(uint _sku, uint _storeID, uint _quantity);\n  event AdminAdded(address _user);\n  event AdminRemoved(address _user);\n  event StoreAdded(address _owner, string _name, uint _skuCount);\n  event StoreRemoved(address _user);\n  event StoreBalanceWithdrawn(uint _storeID, uint balanceToWithdraw);\n  event ItemDeleted(uint _storeID, uint _sku);\n\n  // Verifires caller's address\n  modifier verifyCaller (address _address) { \n    require (msg.sender == _address); \n    _;\n  }\n\n  // Checks if store exists or not\n  modifier checkStoreExistence(uint _storeID) {\n    require(_storeID <= storeCount, \"Invalid StoreID provided\");\n    _;\n  }\n\n  modifier checkOwnerOfStore(address _storeOwner, uint _storeID) {\n    // Why I removed fallback string?\n    // https://github.com/ethereum/solidity/issues/3971\n    require (_storeOwner == stores[_storeID].storeOwner);\n    _;\n  }\n  // Checks if user paid enough\n  modifier paidEnough(uint _totalPrice) { \n    require(msg.value >= _totalPrice); \n    _;\n  }\n  \n  modifier checkQuantity(uint _quantity, uint _storeID, uint _itemCode) {\n    require(_quantity <= stores[_storeID].storeItems[_itemCode].sku, \"Not sufficient quantity available\");\n    _;\n  }\n  \n  constructor() public {\n    isAdmin[owner] = true;\n  }\n  \n  function getStoreItemCount(uint _storeID)\n    public\n    view\n    returns(uint)\n  {\n      return stores[_storeID].storeSkuCount;\n  }\n  \n  function getStoreCount()\n    public\n    view\n    returns(uint)\n  {\n      return storeCount;\n  }\n  \n  function getOrderDetails(uint _storeID, uint _itemCode)\n    public\n    view\n    returns(uint, uint)\n  {\n    uint quantity = people[msg.sender].orders[_storeID][_itemCode];\n    uint price = stores[_storeID].storeItems[_itemCode].price;\n    return(quantity, price);\n  }\n\n  function addItem(string memory _name, uint _price, uint _sku, uint _storeID, string memory _imageHash) public \n    checkOwnerOfStore(msg.sender, _storeID)\n    stopInEmergency()\n  {\n    require(bytes(_name).length <= 20, \"Please keep name under 20 chars\"); // This makes sure that we don't end up using infinite gas\n    skuCount = SafeMath.add(skuCount, 1);\n    uint count = stores[_storeID].storeSkuCount; // increase overall items count\n    stores[_storeID].storeItems[count].name = _name;\n    stores[_storeID].storeItems[count].price = _price;\n    stores[_storeID].storeItems[count].sku = _sku;\n    stores[_storeID].storeItems[count].ipfsImage = _imageHash;\n    stores[_storeID].storeSkuCount = SafeMath.add(count, 1); // increase overall items count\n    emit ForSale(skuCount, _storeID, _name, _sku);\n  }\n  \n\n  function deleteItem(uint _sku, uint _storeID) public \n    checkOwnerOfStore(msg.sender, _storeID)\n    stopInEmergency()\n  {\n    delete stores[_storeID].storeItems[_sku];\n    emit ItemDeleted(_storeID, _sku);\n  }\n\n  function buyItem(uint _sku, uint _quantity, uint _storeID)\n    public\n    payable\n    stopInEmergency()\n    paidEnough(SafeMath.mul(stores[_storeID].storeItems[_sku].price, _quantity))\n  {\n    uint transactAmount = SafeMath.mul(stores[_storeID].storeItems[_sku].price, _quantity);\n    stores[_storeID].storeItems[_sku].sku = SafeMath.sub(stores[_storeID].storeItems[_sku].sku,  _quantity);\n    stores[_storeID].storeBalance = SafeMath.add(stores[_storeID].storeBalance, transactAmount);\n    people[msg.sender].orders[_storeID][_sku] = SafeMath.add(people[msg.sender].orders[_storeID][_sku], _quantity);\n    emit Sold(_sku, _storeID, _quantity);\n  }\n  \n  function withdrawStoreBalance(uint _storeID, uint amountToWithdraw)\n    public\n    payable\n    stopInEmergency()\n    checkOwnerOfStore(msg.sender, _storeID)\n  {\n    require(amountToWithdraw <= stores[_storeID].storeBalance);\n    stores[_storeID].storeOwner.transfer(amountToWithdraw);\n    stores[_storeID].storeBalance = SafeMath.sub(stores[_storeID].storeBalance, amountToWithdraw);\n    emit StoreBalanceWithdrawn(_storeID, amountToWithdraw);\n  }\n  \n  function fetchItem(uint _sku, uint _storeID)\n    stopInEmergency()\n    public \n    view\n    returns (string memory name, uint sku, uint price, string memory image) \n  {\n    Item memory item = stores[_storeID].storeItems[_sku];\n    name = item.name;\n    sku = item.sku;\n    price = item.price;\n    image = item.ipfsImage;\n    return (name, sku, price, image);\n  }\n\n  function addStore(string memory _name, address payable _storeOwner, uint _storeSkuCount) \n    public\n    stopInEmergency()\n  {\n    require(bytes(_name).length <= 20, \"Please keep name under 20 charachters\"); // This makes sure that we don't end up using infinite gas.\n    stores[storeCount].storeName = _name;\n    stores[storeCount].storeOwner = _storeOwner;\n    stores[storeCount].storeSkuCount = _storeSkuCount;\n    storeCount = SafeMath.add(storeCount, 1);\n    emit StoreAdded(_storeOwner, _name, _storeSkuCount);\n  }\n  \n  function freezeMarket() \n    public\n    onlyOwner()\n  {\n    stopped = true;      \n  }\n  \n  function resumeMarket()\n    public\n    onlyOwner()\n  {\n    stopped = false;\n  }\n  \n  function withdrawAll() \n    public\n    onlyOwner()\n    onlyInEmergency()\n  {\n    owner.transfer(address(this).balance);\n  }\n  \n  function addAdmin(address _user)\n    public\n    stopInEmergency()\n    onlyOwner()\n  {\n    isAdmin[_user] = true;\n    emit AdminAdded(_user);\n  }\n  \n  function removeAdmin(address _user)\n    public\n    onlyOwner()\n    stopInEmergency()\n  {\n    isAdmin[_user] = false;\n    emit AdminAdded(_user);\n  }\n  \n  \n  function getStore(uint _storeID)\n    public\n    view\n    checkStoreExistence(_storeID)\n    returns(string memory, address, uint)\n  {\n    Store memory store = stores[_storeID];\n    return (store.storeName, store.storeOwner, store.storeSkuCount);\n  }\n  \n  function getStoreBalance(uint _storeID)\n    public\n    view\n    stopInEmergency()\n    returns(uint)\n  {\n    return stores[_storeID].storeBalance;\n  }\n\n  // If nothing is mathced do this.\n  function() external {\n    revert();\n  }\n}\n",
  "sourcePath": "/Users/macbook/Documents/ESGI/scarlet/blockchain/contracts/Market.sol",
  "compiler": {
    "name": "solc",
    "version": "0.5.16+commit.9c3226ce.Emscripten.clang"
  },
  "schemaVersion": "3.4.0",
  "updatedAt": "2021-05-04T15:10:30.085Z",
  "networkType": "ethereum",
  "devdoc": {
    "methods": {},
    "title": "Market. "
  },
  "userdoc": {
    "methods": {}
  }
}