{
  "contractName": "Stoppable",
  "abi": [
    {
      "constant": true,
      "inputs": [],
      "name": "stopped",
      "outputs": [
        {
          "internalType": "bool",
          "name": "",
          "type": "bool"
        }
      ],
      "payable": false,
      "stateMutability": "view",
      "type": "function"
    },
    {
      "constant": false,
      "inputs": [
        {
          "internalType": "address payable",
          "name": "newOwner",
          "type": "address"
        }
      ],
      "name": "transferOwnership",
      "outputs": [],
      "payable": false,
      "stateMutability": "nonpayable",
      "type": "function"
    },
    {
      "constant": false,
      "inputs": [],
      "name": "emergencyStop",
      "outputs": [],
      "payable": false,
      "stateMutability": "nonpayable",
      "type": "function"
    },
    {
      "constant": false,
      "inputs": [],
      "name": "release",
      "outputs": [],
      "payable": false,
      "stateMutability": "nonpayable",
      "type": "function"
    }
  ],
  "bytecode": "0x6080604052336000806101000a81548173ffffffffffffffffffffffffffffffffffffffff021916908373ffffffffffffffffffffffffffffffffffffffff1602179055506102dc806100536000396000f3fe608060405234801561001057600080fd5b506004361061004c5760003560e01c806363a599a41461005157806375f12b211461005b57806386d1a69f1461007d578063f2fde38b14610087575b600080fd5b6100596100cb565b005b61006361013e565b604051808215151515815260200191505060405180910390f35b610085610151565b005b6100c96004803603602081101561009d57600080fd5b81019080803573ffffffffffffffffffffffffffffffffffffffff1690602001909291905050506101d9565b005b6000809054906101000a900473ffffffffffffffffffffffffffffffffffffffff1673ffffffffffffffffffffffffffffffffffffffff163373ffffffffffffffffffffffffffffffffffffffff16141561013c576001600060146101000a81548160ff0219169083151502179055505b565b600060149054906101000a900460ff1681565b6000809054906101000a900473ffffffffffffffffffffffffffffffffffffffff1673ffffffffffffffffffffffffffffffffffffffff163373ffffffffffffffffffffffffffffffffffffffff1614156101d757600060149054906101000a900460ff16156101d65760008060146101000a81548160ff0219169083151502179055505b5b565b6000809054906101000a900473ffffffffffffffffffffffffffffffffffffffff1673ffffffffffffffffffffffffffffffffffffffff163373ffffffffffffffffffffffffffffffffffffffff1614156102a457600073ffffffffffffffffffffffffffffffffffffffff168173ffffffffffffffffffffffffffffffffffffffff16146102a357806000806101000a81548173ffffffffffffffffffffffffffffffffffffffff021916908373ffffffffffffffffffffffffffffffffffffffff1602179055505b5b5056fea265627a7a723158209b22eb10b43dfe51e6668746365a4ac4eb8427cc30f7d7356800513ab643ada664736f6c63430005100032",
  "source": "pragma solidity ^0.5.0;\n\nimport \"./Ownable.sol\";\n/*\n * Stoppable\n * Abstract contract that allows children to implement an\n * emergency stop mechanism.\n */\ncontract Stoppable is Ownable {\n  bool public stopped;\n  modifier stopInEmergency { \n    if (!stopped) \n      _; \n  }\n  \n  modifier onlyInEmergency { \n    if (stopped) \n      _; \n  }\n\n  // called by the owner on emergency, triggers stopped state\n  function emergencyStop() external onlyOwner {\n    stopped = true;\n  }\n\n  // called by the owner on end of emergency, returns to normal state\n  function release() external onlyOwner onlyInEmergency {\n    stopped = false;\n  }\n\n}\n",
  "sourcePath": "/Users/macbook/Documents/ESGI/scarlet/blockchain/contracts/Stoppable.sol",
  "compiler": {
    "name": "solc",
    "version": "0.5.16+commit.9c3226ce.Emscripten.clang"
  },
  "schemaVersion": "3.4.0",
  "updatedAt": "2021-05-04T15:09:31.801Z",
  "devdoc": {
    "methods": {}
  },
  "userdoc": {
    "methods": {}
  }
}